:100000005A28FF3FFF3F83120313C801C901103074
:10001000CC00410DC80DC90D4408C8024508031C99
:10002000450FC90203181B284408C80745080318D0
:10003000450FC9070310C00DC10DCC0B09280800DE
:1000400064308312C400C5011108C0001208C10049
:1000500003200A30C400C50103204808C000490835
:10006000C10040088F000A30C400C5011108C0005B
:100070001208C10003200A30C400C501032048084B
:10008000C0004908C100400890000A30C400C50102
:100090001108C0001208C10003204808C000490828
:1000A000C10040088E00080083120D088A000C0869
:1000B0008200080028308316850086019101920194
:1000C00083128601930194019301940120200E086C
:1000D000E73EC00000300318013EC10040088C001C
:1000E00041088D0054208A110A12860001308500D3
:1000F0000330CC009730CD00CD0B7C28CC0B7C2876
:10010000000000000F08003CFF3003180030C10061
:100110001008003CFF3003180030C0004108C00444
:100120000319A3281008E73EC00000300318013E61
:10013000C10040088C0041088D0054208A110A1229
:100140008600023085000330CC009730CD00CD0B07
:10015000A728CC0BA728000000000F08003C0318BC
:10016000C2280F08E73EC00000300318013EC1005E
:1001700040088C0041088D0054208A110A12860024
:10018000043085000330CC009730CD00CD0BC6285D
:10019000CC0BC62800000000930A0319940A003013
:1001A0001406031DD528143013060319D828672810
:1001B000910A0319920A1208033C031DE128110851
:1001C000E73C0318E528910192016428E6283F34B2
:1001D00006345B344F3466346D347C3407347F34FA
:1001E0006734FF3FFF3FFF3FFF3FFF3FFF3FFF3FC2
:02400E00FA3F77
:00000001FF
